export const PARITY_EXAMPLE_TRANSACTION_RECEIPT = {
  'blockHash': '0x390ec1865da762f9817f429a0a90a533af1b63f2f51a9820ef7581bc42c9242a',
  'blockNumber': '0x5f30b7',
  'contractAddress': null,
  'cumulativeGasUsed': '0x84b36',
  'gasUsed': '0x425bb',
  'logs': [
    {
      'address': '0x3894395f782fe8d80eca12747f4bf432a2a2f825',
      'blockHash': '0x390ec1865da762f9817f429a0a90a533af1b63f2f51a9820ef7581bc42c9242a',
      'blockNumber': '0x5f30b7',
      'data': '0x000000000000000000000000000000000000000000000000000000005aa1cf94',
      'logIndex': '0x1',
      'topics': [
        '0x66cbca4f3c64fecf1dcb9ce094abcf7f68c3450a1d4e3a8e917dd621edb4ebe0'
      ],
      'transactionHash': '0x9be7511be8f899695077550460eeadfed4a219f09c8812f068412a46f597f8fa',
      'transactionIndex': '0x1',
      'transactionLogIndex': '0x0',
      'type': 'mined'
    }
  ],
  'logsBloom': '0x00000000000000000000000000000000000000000000000000000000000000000000000000000000000000000000000000000000000000000000000000000800000040000000000000000000000000000000000000000000000000000000000000000000000000000000000000000000000000000400000000000000000000000000000000000000000000000000000000000000000000000000000000000000000000000000000000000000000000000000000000000000000000000000000000000000000000000000000000000000000000000000000000000000002000000000004000000000000000000000000000000000000000000000000000000100',
  'root': null,
  'status': '0x1',
  'transactionHash': '0x9be7511be8f899695077550460eeadfed4a219f09c8812f068412a46f597f8fa',
  'transactionIndex': '0x1'
};

export const PARITY_EXAMPLE_BLOCK_WITH_FULL_TRANSACTIONS = {
  'author': '0x00e6d2b931f55a3f1701c7389d592a7778897879',
  'difficulty': '0xfffffffffffffffffffffffffffffffe',
  'extraData': '0xd5830109038650617269747986312e32342e30826c69',
  'gasLimit': '0x7a11e9',
  'gasUsed': '0x84b36',
  'hash': '0x390ec1865da762f9817f429a0a90a533af1b63f2f51a9820ef7581bc42c9242a',
  'logsBloom': '0x00000000000000000000000000000000000000000000000000000000000000000000000000000000080000000000000000000000000002000000000000000800000040000000000000000000000000000000000000000000000000000000000000000000000000000000000000000000000000000400000000000000000000000000000000000000000000000000000000000000000000000000000000000000000000000000000000000000000000000000000000000000000000000000000000000000000000000000000000000000000000000000000000000000002000000000004000000000000000000000000000000100000000000000000000000100',
  'miner': '0x00e6d2b931f55a3f1701c7389d592a7778897879',
  'number': '0x5f30b7',
  'parentHash': '0xe5c95509378ede1891df5c2175ef5c2e61334abef13cbc4821e1e75431e60023',
  'receiptsRoot': '0x5af30db2a4d47e41f378d83ccfa8f9a4045e07cb3e69c93b4d777e09db78da85',
  'sealFields': [
    '0x8416a873e5',
    '0xb841bddddf20a0dbefab40d43e87f684a1127fdec332a82a06111beb9e739fb87c033006cb685f88e581b9c30a8e3f9aa693a3a326a63242cf05dbf286409121c64801'
  ],
  'sha3Uncles': '0x1dcc4de8dec75d7aab85b567b6ccd41ad312451b948a7413f0a142fd40d49347',
  'signature': 'bddddf20a0dbefab40d43e87f684a1127fdec332a82a06111beb9e739fb87c033006cb685f88e581b9c30a8e3f9aa693a3a326a63242cf05dbf286409121c64801',
  'size': '0xd28',
  'stateRoot': '0x34faf8e95232f9b77445f50261e13df6cc94f4d47517e2a269755834f124bceb',
  'step': '380138469',
  'timestamp': '0x5aa1cf94',
  'totalDifficulty': '0x5ceda8000000000000000000000004854f4c8d',
  'transactions': [
    {
      'blockHash': '0x390ec1865da762f9817f429a0a90a533af1b63f2f51a9820ef7581bc42c9242a',
      'blockNumber': '0x5f30b7',
      'chainId': '0x2a',
      'condition': null,
      'creates': null,
      'from': '0x00360d2b7d240ec0643b6d819ba81a09e40e5bcd',
      'gas': '0xe57e0',
      'gasPrice': '0x3b9aca00',
      'hash': '0x21dbe07d5dec0ab4ced9fd42d5ad7bbca14b396f53cfad8d4ff0a9d0294b43b8',
      'input': '0x2c10e90c000000000000000000000000000000000000000000000000000000000000004000000000000000000000000000000000000000000000000000000000000002a00000000000000000000000000000000000000000000000000000000000000012000000000000000000000000ac1d6f9ca9be3938a18980e867624c4e02a4281500000000000000000000000070f09e5041b0ba02b6c5f264c5d94856492ff3a2000000000000000000000000a159baa1dda6b1692aeee0723916969f414e346e000000000000000000000000895a397a4525b63ac78f4fff372e54b94c7d0c450000000000000000000000003e0fc586fe688018b12813afd70530787e36789a000000000000000000000000fa010b395ceb70411102111f423d098df429d00c00000000000000000000000064a31bf2495fb6cd678428a4f08d46837a000984000000000000000000000000e532dc18c08c1139be86ef27440b6433636054b70000000000000000000000009bd23cdf60e8b2cb61593e60be1c185c8924b3740000000000000000000000005fa0fc27f6babb6209856d56c72efa9b470ffbc90000000000000000000000004ca83c47bc3888e9338f16d791dde0c667611a0c000000000000000000000000b9ec128bb1fa8fe01e4d5fbd3d4147171a5f37e20000000000000000000000006c7fc824b2d35fdb338c7f8e393b16e414d38d8900000000000000000000000020fb8bb39e62b4de5a6e3f44ff361c83aaaf709d000000000000000000000000d96fb228635dfe820a0a893e3fb9ae1c5509cb14000000000000000000000000a96df1c41b712800a2edb8d3b3a30323212f38960000000000000000000000008baf3752856d703eb772bb8d765f64724c160c9b000000000000000000000000b68584a15d711374665d4317e0aa440ca12943e300000000000000000000000000000000000000000000000000000000000000120000000000000000000000000000000000000000000000000088f579ff58ecb800000000000000000000000000000000000000000000000000909878ac4517280000000000000000000000000000000000000000000000000009ee559a0cfc28000000000000000000000000000000000000000000000005489c63c66f85d8c80000000000000000000000000000000000000000000000002fc9dccec93abb500000000000000000000000000000000000000000000000000000253b145c9148000000000000000000000000000000000000000000000000033a3665509a3ca0000000000000000000000000000000000000000000000000654c37754c5e9a48000000000000000000000000000000000000000000000000002d922bcf93de7800000000000000000000000000000000000000000000000010617a19eb0cdf28000000000000000000000000000000000000000000000000000b87d9c3c5f668000000000000000000000000000000000000000000000000003739f4b4907e900000000000000000000000000000000000000000000000001982b942b777d2980000000000000000000000000000000000000000000000000de0b6b3a76400000000000000000000000000000000000000000000000000000592caea9787c578000000000000000000000000000000000000000000000000001df9c3fff18bc0000000000000000000000000000000000000000000000000000325c84e372a280000000000000000000000000000000000000000000000000005789481a8c6c0',
      'nonce': '0x1ed208',
      'publicKey': '0xb1b23f183213a91beab500a48fc01030f95c852311b280cbc8fb101140da1fedceee3fd4896e868593306bdcdd7d90f7bfa9b3501d12b46dc44f1a9fd0b7e791',
      'r': '0x11c5424ecb0610bd0c3988bf2aa2d85dfecb22478b89904d35f365851acccb18',
      'raw': '0xf9056d831ed208843b9aca00830e57e094ef65281b4a6b1749e6fb2103793b1afe187e72c180b905042c10e90c000000000000000000000000000000000000000000000000000000000000004000000000000000000000000000000000000000000000000000000000000002a00000000000000000000000000000000000000000000000000000000000000012000000000000000000000000ac1d6f9ca9be3938a18980e867624c4e02a4281500000000000000000000000070f09e5041b0ba02b6c5f264c5d94856492ff3a2000000000000000000000000a159baa1dda6b1692aeee0723916969f414e346e000000000000000000000000895a397a4525b63ac78f4fff372e54b94c7d0c450000000000000000000000003e0fc586fe688018b12813afd70530787e36789a000000000000000000000000fa010b395ceb70411102111f423d098df429d00c00000000000000000000000064a31bf2495fb6cd678428a4f08d46837a000984000000000000000000000000e532dc18c08c1139be86ef27440b6433636054b70000000000000000000000009bd23cdf60e8b2cb61593e60be1c185c8924b3740000000000000000000000005fa0fc27f6babb6209856d56c72efa9b470ffbc90000000000000000000000004ca83c47bc3888e9338f16d791dde0c667611a0c000000000000000000000000b9ec128bb1fa8fe01e4d5fbd3d4147171a5f37e20000000000000000000000006c7fc824b2d35fdb338c7f8e393b16e414d38d8900000000000000000000000020fb8bb39e62b4de5a6e3f44ff361c83aaaf709d000000000000000000000000d96fb228635dfe820a0a893e3fb9ae1c5509cb14000000000000000000000000a96df1c41b712800a2edb8d3b3a30323212f38960000000000000000000000008baf3752856d703eb772bb8d765f64724c160c9b000000000000000000000000b68584a15d711374665d4317e0aa440ca12943e300000000000000000000000000000000000000000000000000000000000000120000000000000000000000000000000000000000000000000088f579ff58ecb800000000000000000000000000000000000000000000000000909878ac4517280000000000000000000000000000000000000000000000000009ee559a0cfc28000000000000000000000000000000000000000000000005489c63c66f85d8c80000000000000000000000000000000000000000000000002fc9dccec93abb500000000000000000000000000000000000000000000000000000253b145c9148000000000000000000000000000000000000000000000000033a3665509a3ca0000000000000000000000000000000000000000000000000654c37754c5e9a48000000000000000000000000000000000000000000000000002d922bcf93de7800000000000000000000000000000000000000000000000010617a19eb0cdf28000000000000000000000000000000000000000000000000000b87d9c3c5f668000000000000000000000000000000000000000000000000003739f4b4907e900000000000000000000000000000000000000000000000001982b942b777d2980000000000000000000000000000000000000000000000000de0b6b3a76400000000000000000000000000000000000000000000000000000592caea9787c578000000000000000000000000000000000000000000000000001df9c3fff18bc0000000000000000000000000000000000000000000000000000325c84e372a280000000000000000000000000000000000000000000000000005789481a8c6c078a011c5424ecb0610bd0c3988bf2aa2d85dfecb22478b89904d35f365851acccb18a02de45546519e029a9ba00c3f141d1c62ff236ede087f3804b8b4c9114223654a',
      's': '0x2de45546519e029a9ba00c3f141d1c62ff236ede087f3804b8b4c9114223654a',
      'standardV': '0x1',
      'to': '0xef65281b4a6b1749e6fb2103793b1afe187e72c1',
      'transactionIndex': '0x0',
      'v': '0x78',
      'value': '0x0'
    },
    {
      'blockHash': '0x390ec1865da762f9817f429a0a90a533af1b63f2f51a9820ef7581bc42c9242a',
      'blockNumber': '0x5f30b7',
      'chainId': '0x2a',
      'condition': null,
      'creates': null,
      'from': '0x00360d2b7d240ec0643b6d819ba81a09e40e5bcd',
      'gas': '0xe57e0',
      'gasPrice': '0x3b9aca00',
      'hash': '0x9be7511be8f899695077550460eeadfed4a219f09c8812f068412a46f597f8fa',
      'input': '0x2c10e90c000000000000000000000000000000000000000000000000000000000000004000000000000000000000000000000000000000000000000000000000000002a00000000000000000000000000000000000000000000000000000000000000012000000000000000000000000d99aed09a65ee8377a2ffad8ed5407785c530869000000000000000000000000764ae227ad6a6e143546772169265d76aa9337c6000000000000000000000000fee1d0dc0b5b6f2f20d8e9f7e95e9e367e4a61a7000000000000000000000000f53e3b6c12f8c66324a64f31277260c06d8697320000000000000000000000003b7c7c457d3aae04a4631e4888aeeedd08b24e41000000000000000000000000c37cdfb70bd68f6fcf2ab0a97e1d6a12eaa9215f000000000000000000000000334559e91238f466c95bb8241555f6ad27f5978b0000000000000000000000001a825e9bf3bdc8ef8b975f97c78b5208a947d0ec000000000000000000000000caac95ab4d30ee8d6162e55eb3430134fec5af50000000000000000000000000c73d78870ba5a3eaddc2be371af09b2c429cb2ca00000000000000000000000008c24283f0b6c07ff9793a1b8534a49b32c07e73000000000000000000000000c87bad39aadb70257e2417bd8f4983361599394d000000000000000000000000f051264ab9046fd73cbd00df5e732d2ca78ee7040000000000000000000000002a20ff70596e431ab26c2365acab1b988da8eccf00000000000000000000000064af87a36a407732320c4dc1852debc60cd81c5e0000000000000000000000003b43249de8eee169eea7226a48699fcba8df36860000000000000000000000004c4e2b285e446fb1974dcc3a665caba7c189a96f00000000000000000000000064c4406c58c512f326d83065a72f12884105520b00000000000000000000000000000000000000000000000000000000000000120000000000000000000000000000000000000000000000000088f579ff58ecb800000000000000000000000000000000000000000000000000909878ac4517280000000000000000000000000000000000000000000000000009ee559a0cfc28000000000000000000000000000000000000000000000005489c63c66f85d8c80000000000000000000000000000000000000000000000002fc9dccec93abb500000000000000000000000000000000000000000000000000000253b145c9148000000000000000000000000000000000000000000000000033a3665509a3ca0000000000000000000000000000000000000000000000000654c37754c5e9a48000000000000000000000000000000000000000000000000002d922bcf93de7800000000000000000000000000000000000000000000000010617a19eb0cdf28000000000000000000000000000000000000000000000000000b87d9c3c5f668000000000000000000000000000000000000000000000000003739f4b4907e900000000000000000000000000000000000000000000000001982b942b777d2980000000000000000000000000000000000000000000000000de0b6b3a76400000000000000000000000000000000000000000000000000000592caea9787c578000000000000000000000000000000000000000000000000001df9c3fff18bc0000000000000000000000000000000000000000000000000000325c84e372a280000000000000000000000000000000000000000000000000005789481a8c6c0',
      'nonce': '0x1ed209',
      'publicKey': '0xb1b23f183213a91beab500a48fc01030f95c852311b280cbc8fb101140da1fedceee3fd4896e868593306bdcdd7d90f7bfa9b3501d12b46dc44f1a9fd0b7e791',
      'r': '0xec5cb51f26b3b8b1ece3b559504e92f9088e8be33d21e3a3d907142a70d9382e',
      'raw': '0xf9056d831ed209843b9aca00830e57e0943894395f782fe8d80eca12747f4bf432a2a2f82580b905042c10e90c000000000000000000000000000000000000000000000000000000000000004000000000000000000000000000000000000000000000000000000000000002a00000000000000000000000000000000000000000000000000000000000000012000000000000000000000000d99aed09a65ee8377a2ffad8ed5407785c530869000000000000000000000000764ae227ad6a6e143546772169265d76aa9337c6000000000000000000000000fee1d0dc0b5b6f2f20d8e9f7e95e9e367e4a61a7000000000000000000000000f53e3b6c12f8c66324a64f31277260c06d8697320000000000000000000000003b7c7c457d3aae04a4631e4888aeeedd08b24e41000000000000000000000000c37cdfb70bd68f6fcf2ab0a97e1d6a12eaa9215f000000000000000000000000334559e91238f466c95bb8241555f6ad27f5978b0000000000000000000000001a825e9bf3bdc8ef8b975f97c78b5208a947d0ec000000000000000000000000caac95ab4d30ee8d6162e55eb3430134fec5af50000000000000000000000000c73d78870ba5a3eaddc2be371af09b2c429cb2ca00000000000000000000000008c24283f0b6c07ff9793a1b8534a49b32c07e73000000000000000000000000c87bad39aadb70257e2417bd8f4983361599394d000000000000000000000000f051264ab9046fd73cbd00df5e732d2ca78ee7040000000000000000000000002a20ff70596e431ab26c2365acab1b988da8eccf00000000000000000000000064af87a36a407732320c4dc1852debc60cd81c5e0000000000000000000000003b43249de8eee169eea7226a48699fcba8df36860000000000000000000000004c4e2b285e446fb1974dcc3a665caba7c189a96f00000000000000000000000064c4406c58c512f326d83065a72f12884105520b00000000000000000000000000000000000000000000000000000000000000120000000000000000000000000000000000000000000000000088f579ff58ecb800000000000000000000000000000000000000000000000000909878ac4517280000000000000000000000000000000000000000000000000009ee559a0cfc28000000000000000000000000000000000000000000000005489c63c66f85d8c80000000000000000000000000000000000000000000000002fc9dccec93abb500000000000000000000000000000000000000000000000000000253b145c9148000000000000000000000000000000000000000000000000033a3665509a3ca0000000000000000000000000000000000000000000000000654c37754c5e9a48000000000000000000000000000000000000000000000000002d922bcf93de7800000000000000000000000000000000000000000000000010617a19eb0cdf28000000000000000000000000000000000000000000000000000b87d9c3c5f668000000000000000000000000000000000000000000000000003739f4b4907e900000000000000000000000000000000000000000000000001982b942b777d2980000000000000000000000000000000000000000000000000de0b6b3a76400000000000000000000000000000000000000000000000000000592caea9787c578000000000000000000000000000000000000000000000000001df9c3fff18bc0000000000000000000000000000000000000000000000000000325c84e372a280000000000000000000000000000000000000000000000000005789481a8c6c077a0ec5cb51f26b3b8b1ece3b559504e92f9088e8be33d21e3a3d907142a70d9382ea015a2891577bebad894e0a9125ee3a4e504f501bdb03ef40ca6298b9608eb160b',
      's': '0x15a2891577bebad894e0a9125ee3a4e504f501bdb03ef40ca6298b9608eb160b',
      'standardV': '0x0',
      'to': '0x3894395f782fe8d80eca12747f4bf432a2a2f825',
      'transactionIndex': '0x1',
      'v': '0x77',
      'value': '0x0'
    }
  ],
  'transactionsRoot': '0xa0b12bbe90290dd5baff8a00c444f52b1348a8220bdc0f93b09df46b2c74b75f',
  'uncles': []
};

